:107E000001C0E4C0112484B7882359F083FF03C064
:107E100094B7967F94BF80FD04C0282E80E0C1D027
:107E2000EFC085E08093810082E08093C00088E10C
:107E30008093C10086E08093C20080E18093C400FB
:107E40008FE0AFD0259A86E020E33CEF91E03093BD
:107E500085002093840096BBB09BFECF1D9AA89509
:107E60004091C00047FD02C0815089F793E0E92EA0
:107E7000DD24D39425E0C22E31E1B32E86D08134A7
:107E800079F483D0182F93D0123811F480E004C015
:107E900088E0113809F083E071D080E16FD0EECF37
:107EA000823419F484E18BD0F8CF853411F485E065
:107EB000FACF853541F469D0C82F67D0D82FCC0FC1
:107EC000DD1F75D0EACF863519F484E078D0DECF97
:107ED000843609F034C059D058D0F82E56D0A82E88
:107EE00000E011E048018FEF881A980A4ED0F8019F
:107EF00080838401F810F6CF5AD0F5E4AF1201C0A8
:107F0000FFCFFE01E7BEE89507B600FCFDCFFE01FE
:107F1000A0E0B1E0CD0102962D913C910901D7BEC0
:107F2000E89511243296DC01F812F4CFFE01C7BEA9
:107F3000E89507B600FCFDCFB7BEE895AECF843715
:107F400071F423D022D0F82E20D031D08E01F80148
:107F500085918F0113D0FA94F110F9CF9ECF853718
:107F600039F425D08EE10AD085E908D08FE094CF8E
:107F7000813509F0A6CF88E014D0A3CF9091C0003E
:107F800095FFFCCF8093C60008958091C00087FFC5
:107F9000FCCF8091C00084FD01C0A8958091C600EF
:107FA0000895E0E6F0E098E1908380830895EDDFA6
:107FB000803219F088E0F5DFFFCF84E1DFCFCF9387
:107FC000C82FE3DFC150E9F7CF91F1CFFC010A01DF
:107FD00067BFE895112407B600FCFDCF667029F055
:0C7FE000452B19F481E187BFE895089556
:027FFE00000879
:0400000300007E007B
:00000001FF
